:04000000FEEFFFF020
:102600000000000000DCCFD1350000000000C01544
:102610003F6042A20D70A5EC363BAAB83F4F38761A
:102620003F3CAA38338CBEBF350072313F1872313F
:102630003F4CBB31330EEADDB555B38A38610B36FA
:10264000BBABAA2A3E42F1533E55326C3E05A38BEA
:102650003EABAAAA3EB76DDB3E9A99193F6042A2F3
:102660000DCAF249710000804B0000803F0000C09D
:0F2670003F00AAB83FC623F6B80040763F0000EF
:10268000036E83EF13F03F0E046ECCEF13F0060ED3
:10269000046ECCEF13F05B0E046ECCEF13F04F0E14
:1026A000046ECCEF13F0660E046ECCEF13F06D0EDB
:1026B000046ECCEF13F07D0E046ECCEF13F0070E1A
:1026C000046ECCEF13F07F0E046ECCEF13F0670EA8
:1026D000046ECCEF13F0770E046ECCEF13F07C0E8B
:1026E000046ECCEF13F0580E046ECCEF13F05E0EB8
:1026F000046ECCEF13F0790E046ECCEF13F0710E74
:10270000046ECCEF13F00350016E026A0250000A0F
:10271000D8B48DEF13F07FEF13F00150000AD8B456
:1027200043EF13F0010AD8B447EF13F0030AD8B40B
:102730004BEF13F0010AD8B44FEF13F0070AD8B4E7
:1027400053EF13F0010AD8B457EF13F0030AD8B4CB
:102750005BEF13F0010AD8B45FEF13F00F0AD8B49F
:1027600063EF13F0010AD8B467EF13F0030AD8B48B
:102770006BEF13F0010AD8B46FEF13F0070AD8B467
:1027800073EF13F0010AD8B477EF13F0030AD8B44B
:102790007BEF13F07FEF13F004501200C390C3825D
:1027A000C384C386A30E016E550EE82EFED7012EFC
:1027B000FCD700F0D3B8DFEF13F0E1EF13F0ECEF4C
:1027C00013F0A30E016E550EE82EFED7012EFCD796
:1027D00000F0010E23EF14F0D3AAF1EF13F0F3EFA2
:1027E00013F0FEEF13F0A30E016E550EE82EFED788
:1027F000012EFCD700F0020E23EF14F0D3BC03EF40
:1028000014F005EF14F010EF14F0A30E016E550E46
:10281000E82EFED7012EFCD700F0030E23EF14F0B4
:10282000D3BE15EF14F017EF14F022EF14F0A30E3F
:10283000016E550EE82EFED7012EFCD700F00A0ED1
:1028400023EF14F0780E1200000EC26E000EC16E5F
:10285000000EBE6E000EC36E000EBF6E000EC06E88
:10286000070ECA6EF00ECB6EC668000EC76EF00E75
:10287000C86EC96804011869F00E106F000E086F69
:10288000070E206F000E286F0069000E196F000EF2
:10289000296F000E216F000E096F000E016F000EF0
:1028A000116F000E0201896F000E886F000E876F96
:1028B000000E866F000E0401226F000E2A6F000EBC
:1028C000026F000E0A6F000E126F000E1A6F03697E
:1028D0000B6913691B69070E236F2B6904690C6967
:1028E00014691C690F0E246F2C691200000E000180
:1028F000606F000E616F000E636F000E646F000E5C
:10290000656F000E666F000E676F000E686F120035
:10291000066E010EC06E065040EC13F0BF6EA30EA3
:10292000056E550EE82EFED7052EFCD700F01200DE
:10293000620E0001AD6F000EAF6F000EB36F020E9E
:10294000B16F000EB06F000EAC6F1200BBEC14F054
:10295000CEEC13F0076E075088EC14F0A8EF14F0DB
:10296000FEEFFFF00D6A0C6A0B6A0A6A096A086AD0
:102970000001A6EF14F076EC14F024EC14F098ECBF
:0429800014F012003D
:020000040001F9
:04FFFC00B2EF14F05C
:020000040020DA
:10000000FF0FFF0FFF0FFF0FFF0FFF0FFF0FFF0F80
:10001000FF0FFF0FFF0FFF0FFF0FFF0FFF0FFF0F70
:10002000FF0FFF0FFF0FFF0FFF0FFF0FFF0FFF0F60
:10003000FF0FFF0FFF0FFF0FFF0FFF0FFF0FFF0F50
:020000040030CA
:0A000000ECFFF7FF9FFFFFFFFFFF7B
:00000001FF
